:020000040000FA
:060000000A128A110C280F
:10000800FE00030EF1000A08F2000A128A113A28CB
:100018000A128A110F28F301F40183010A128A11C6
:10002800572883160317880189018B178B168316A7
:10003800031381118112011481100111831203131A
:10004800810183160313870188018601061486142B
:100058008312031387018801831603138614061479
:100068000B178B15161496140B1008000B1C3D2843
:100078003E2850288312031306184328442847288B
:10008800013088024F2886184A284B284F2801300B
:10009800F000700888070B1072088A00710E830040
:1000A800FE0E7E0E09000A128A1115200A128A1104
:0600B8000A128A110C2857
:04400E00F423FF3F59
:00000001FF
