:020000040000FA
:060000000A128A110C280F
:10000800FE00030EF1000A08F2000A128A115229B2
:100018000A128A110F28F901FA0183010A128A11BA
:100028001C29F8003028831203139F131F139728E5
:10003800831203139F131F179728831203139F1705
:100048001F139728831203139F171F1797288312CC
:1000580003139F131F1797287808F600F7017708EE
:10006800003A031938282B287608003A031917286C
:10007800013A03191C28033A03192128013A0319E4
:1000880026282B28C3309F05DD281F08C3390438CC
:100098009F00DD281F08C33908389F00DD281F0886
:1000A800C3390C389F00DD281F08C33910389F005A
:1000B800DD281F08C33914389F00DD281F08C339FD
:1000C80018389F00DD281F08C3391C389F00DD2819
:1000D8001F08C33920389F00DD281F08C33924387A
:1000E8009F00DD281F08C33928389F00DD281F0816
:1000F800C3392C389F00DD281F08C33930389F00CA
:10010800DD281F08C33934389F00DD281F08C3398C
:1001180038389F00DD283C309F04DD281F08C3398C
:1001280008389F00DD287308F600F7017708003AC1
:1001380003199F2892287608003A03194628013A9D
:1001480003194928033A03194E28013A0319532879
:10015800073A03195828013A03195D28033A031985
:100168006228013A031967280F3A03196C28013AE3
:1001780003197128033A03197628013A03197B28D1
:10018800073A03198028013A03198528033A031905
:100198008A28013A03198F289228831603139F137C
:1001A800FC28831603139F17FC28831603139F1339
:1001B800FC287408F600F7017708003A0319E528C7
:1001C800D9287608003A0319D128013A0319D52805
:1001D800D9289F121F1212299F121F1612299F1623
:1001E8001F1212299F161F1612299F121F12122959
:1001F8007508F600F7017708003A03190429F92869
:100208007608013A0319ED28033A0319F028013A50
:100218000319F328073A0319F628F9288312031358
:100228000C13831603130C17831203131F140800EF
:100238000A128A117C210A128A11023083120313CE
:10024800A0002008F300F401F501F50A01300A12B4
:100258008A1115200A128A11FA01FA0A79088312FA
:10026800031387007A03031D3A293B294729C7301E
:1002780083120313A0004029A00B3F294329FA0148
:10028800831203139F147908080203184C294D2977
:100298003229091432290A128A110C280B1C5529F3
:1002A8005629682983120313061C5B295C295F29D8
:1002B800013088026729861C622963296729013071
:1002C800F000700888070B10831203130C1F6D29A8
:1002D8006E2975291E08F0007008F900FA01FA0A5B
:1002E8000C1372088A00710E8300FE0E7E0E090040
:1002F800831603178801890108158B1783120313C6
:10030800810183160313850105158701880186017C
:1003180083120313870188018316031386140614B6
:100328000B178B15161496140B10831203130C134A
:0E033800831603130C17831203131F140800FF
:04400E00F423FF3F59
:00000001FF
