:020000040000FA
:060000000A128A110C280F
:10000800FE00030EF1000A08F2000A128A114329C1
:100018000A128A110F28FA0183010A128A111B2970
:10002800F8002F28831203139F131F139628831297
:1000380003139F131F179628831203139F171F1369
:100048009628831203139F171F17962883120313EA
:100058009F131F1796287808F600F7017708003ACB
:10006800031937282A287608003A03191628013A6E
:1000780003191B28033A03192028013A03192528D4
:100088002A28C3309F05DC281F08C33904389F007D
:10009800DC281F08C33908389F00DC281F08C3392B
:1000A8000C389F00DC281F08C33910389F00DC2853
:1000B8001F08C33914389F00DC281F08C3391838B3
:1000C8009F00DC281F08C3391C389F00DC281F0844
:1000D800C33920389F00DC281F08C33924389F0003
:1000E800DC281F08C33928389F00DC281F08C339BB
:1000F8002C389F00DC281F08C33930389F00DC28C3
:100108001F08C33934389F00DC281F08C339383822
:100118009F00DC283C309F04DC281F08C3390838BE
:100128009F00DC287308F600F7017708003A0319E6
:100138009E2891287608003A03194528013A0319A0
:100148004828033A03194D28013A03195228073A57
:1001580003195728013A03195C28033A031961283F
:10016800013A031966280F3A03196B28013A031953
:100178007028033A03197528013A03197A28073AAF
:1001880003197F28013A03198428033A0319892897
:10019800013A03198E289128831603139F13FB280D
:1001A800831603139F17FB28831603139F13FB283B
:1001B8007408F600F7017708003A0319E428D828EC
:1001C8007608003A0319D028013A0319D428D82808
:1001D8009F121F1211299F121F1611299F161F12F5
:1001E80011299F161F1611299F121F121129750810
:1001F800F600F7017708003A03190329F82876086A
:10020800013A0319EC28033A0319EF28013A0319B4
:10021800F228073A0319F528F828831203130C1358
:10022800831603130C17831203131F1408000A12F2
:100238008A116B210A128A110230F9007908F30039
:10024800F401F501F50A01300A128A1114200A1284
:100258008A11FA01FA0A7A03031D332934292F294E
:10026800C730F9003729F90B36293A293B29FA0111
:10027800831203139F142F290A128A110C280B1CAE
:1002880046294729592983120313061C4C294D294D
:100298005029013088025829861C53295429582985
:1002A8000130F000700888070B10831203130C1F2D
:1002B8005E295F2964291E088700FA01FA0A0C13CF
:1002C80072088A00710E8300FE0E7E0E09008316E6
:1002D80003178801890108158B17831203138101FD
:1002E800831603138501051587018801860183128A
:1002F80003138701880183160313861406140B174A
:100308008B15161496140B10831203130C138316F3
:0C03180003130C17831203131F140800BA
:04400E00F423FF3F59
:00000001FF
